:1000000000000120510C0000C10C0000C30C0000D6
:10001000C50C0000C70C0000C90C00000000000067
:10002000000000000000000000000000CB0C0000F9
:10003000CD0C000000000000CF0C0000D10C00002F
:10004000D30C0000D30C0000D30C0000D30C000034
:10005000D30C0000D30C0000D30C0000D30C000024
:10006000D30C0000D30C0000D30C0000D30C000014
:10007000D30C0000D30C0000D30C0000D30C000004
:10008000D30C0000D30C0000D30C0000D30C0000F4
:10009000D30C0000D30C0000D30C0000D30C0000E4
:1000A000D30C0000D30C0000D30C0000D30C0000D4
:1000B000D30C0000D30C0000000000000000000082
:1000C000D30C0000D30C0000D30C0000D30C0000B4
:1000D000D30C0000D30C0000D30C00000000000083
:1000E0000000000000000000000000000000000010
:1000F0000000000000000000000000000000000000
:1001000000000000000000000000000000000000EF
:1001100000000000000000000000000000000000DF
:1001200000000000000000000000000000000000CF
:1001300000000000000000000000000000000000BF
:1001400000000000000000000000000000000000AF
:10015000000000000000000000000000000000009F
:10016000000000000000000000000000000000008F
:10017000000000000000000000000000000000007F
:10018000000000000000000000000000000000006F
:10019000000000000000000000000000000000005F
:1001A000000000000000000000000000000000004F
:1001B000000000000000000000000000000000003F
:1001C000000000000000000000000000000000002F
:1001D000000000000000000000000000000000001F
:1001E000000000000000000000000000000000000F
:1001F00000000000000000000000000000000000FF
:0402000008000020D2
:080204004800000001000000A9
:10020C0010B5054C237833B9044B13B10448AFF344
:10021C0000800123237010BD340400200000000076
:10022C00AC0F000008B5034B1BB103490348AFF3F7
:10023C00008008BD0000000038040020AC0F000056
:10024C00A3F5803A704700BF174B002B08BF134B28
:10025C009D46FFF7F5FF00218B460F461348144AC5
:10026C00121A00F065FD0E4B002B00D098470D4B79
:10027C00002B00D098470020002104000D000D48F1
:10028C00002802D00C4800F011FE00F02DFD2000DB
:10029C00290000F073F800F017FD00BF0000080003
:1002AC0000000000000000000000012034040020C9
:1002BC0054040020B90E0000C50E000080B400AF3D
:1002CC004FF0A0430022C3F83C274FF0A04300227C
:1002DC00C3F840274FF0A0430122C3F844274FF046
:1002EC00A0430122C3F848274FF0A0430122C3F8D2
:1002FC004C274FF0A0430122C3F8502700BFBD4646
:10030C0080BC704780B400AF4FF0A0434FF4003274
:10031C00C3F808254FF0A0434FF48022C3F80825FA
:10032C004FF0A0434FF40022C3F808254FF0A04330
:10033C004FF48012C3F8082500BFBD4680BC70473F
:10034C0080B400AF4FF0A0434FF40032C3F80C253B
:10035C004FF0A0434FF48022C3F80C254FF0A0437C
:10036C004FF40022C3F80C254FF0A0434FF4801239
:10037C00C3F80C2500BFBD4680BC704780B582B069
:10038C0000AFFFF79BFF00237B604FF0A043D3F837
:10039C00103503F40043002B01D1FFF7B3FF4FF0EE
:1003AC00A043D3F8103503F48033002B01D1FFF7B1
:1003BC00C7FF42F210737B607B68013B7B607B68FC
:1003CC00002BF9D1E1E7000080B483B000AF1E4BE5
:1003DC001B68B3F1FF3F0AD11C4B1B68DBB27B607F
:1003EC001B4B1B681B0903F00F033B6005E0164B0E
:1003FC001B687B60174B1B683B607B68062B1DD111
:10040C003B68033B042B17D801A252F823F000BF22
:10041C003104000035040000390400003D040000E4
:10042C004104000001230AE0012308E0012306E057
:10043C00012304E0012302E0012300E0002318461D
:10044C000C37BD4680BC704730010010E00F00F047
:10045C00E80F00F03401001080B483B000AF184BEB
:10046C001B68DBB27B60174B1B681B0903F00F0387
:10047C003B607B68062B1DD13B68033B042B17D8D4
:10048C0001A252F823F000BFA9040000AD04000043
:10049C00B1040000B5040000B904000001230AE017
:1004AC00002308E0002306E0002304E0002302E020
:1004BC00002300E0002318460C37BD4680BC704773
:1004CC00E00F00F0E80F00F080B483B000AF1E4BDB
:1004DC001B68B3F1FF3F0AD11C4B1B68DBB27B607E
:1004EC001B4B1B681B0903F00F033B6005E0164B0D
:1004FC001B687B60174B1B683B607B68062B1DD110
:10050C003B68033B042B17D801A252F823F000BF21
:10051C003105000035050000390500003D050000DF
:10052C004105000001230AE0012308E0012306E055
:10053C00012304E0012302E0012300E0002318461C
:10054C000C37BD4680BC704730010010E00F00F046
:10055C00E80F00F03401001080B483B000AF184BEA
:10056C001B68DBB27B60174B1B681B0903F00F0386
:10057C003B607B68062B1DD13B68033B042B17D8D3
:10058C0001A252F823F000BFA9050000AD05000040
:10059C00B1050000B5050000B905000001230AE013
:1005AC00002308E0002306E0002304E0002302E01F
:1005BC00002300E0002318460C37BD4680BC704772
:1005CC00E00F00F0E80F00F080B483B000AF1E4BDA
:1005DC001B68B3F1FF3F0AD11C4B1B68DBB27B607D
:1005EC001B4B1B681B0903F00F033B6005E0164B0C
:1005FC001B687B60174B1B683B607B68062B1DD10F
:10060C003B68033B042B17D801A252F823F000BF20
:10061C003106000035060000390600003D060000DA
:10062C004106000001230AE0012308E0012306E053
:10063C00012304E0012302E0012300E0002318461B
:10064C000C37BD4680BC704730010010E00F00F045
:10065C00E80F00F03401001080B483B000AF184BE9
:10066C001B68DBB27B60174B1B681B0903F00F0385
:10067C003B607B68062B1DD13B68033B042B17D8D2
:10068C0001A252F823F000BFA9060000AD0600003D
:10069C00B1060000B5060000B906000001230AE00F
:1006AC00002308E0002306E0002304E0002302E01E
:1006BC00002300E0002318460C37BD4680BC704771
:1006CC00E00F00F0E80F00F080B483B000AF184BDF
:1006DC001B68DBB27B60174B1B681B0903F00F0315
:1006EC003B607B68062B1DD13B68033B042B17D862
:1006FC0001A252F823F000BF190700001D070000EB
:10070C0021070000250700002907000001230AE04B
:10071C00002308E0002306E0002304E0002302E0AD
:10072C00002300E0002318460C37BD4680BC704700
:10073C00E00F00F0E80F00F080B483B000AF1E4B68
:10074C001B68B3F1FF3F0AD11C4B1B68DBB27B600B
:10075C001B4B1B681B0903F00F033B6005E0164B9A
:10076C001B687B60174B1B683B607B68062B1DD19D
:10077C003B68033B042B17D801A252F823F000BFAF
:10078C00A1070000A5070000A9070000AD070000A5
:10079C00B107000000230AE0002308E0012306E073
:1007AC00012304E0012302E0012300E000231846AA
:1007BC000C37BD4680BC704730010010E00F00F0D4
:1007CC00E80F00F03401001080B483B000AF1E4B72
:1007DC001B68B3F1FF3F0AD11C4B1B68DBB27B607B
:1007EC001B4B1B681B0903F00F033B6005E0164B0A
:1007FC001B687B60174B1B683B607B68062B1DD10D
:10080C003B68033B042B17D801A252F823F000BF1E
:10081C003108000035080000390800003D080000D0
:10082C004108000001230AE0012308E0012306E04F
:10083C00012304E0012302E0012300E00023184619
:10084C000C37BD4680BC704730010010E00F00F043
:10085C00E80F00F03401001080B483B000AF1E4BE1
:10086C001B68B3F1FF3F0AD11C4B1B68DBB27B60EA
:10087C001B4B1B681B0903F00F033B6005E0164B79
:10088C001B687B60174B1B683B607B68062B1DD17C
:10089C003B68033B042B17D801A252F823F000BF8E
:1008AC00C1080000C5080000C9080000CD08000000
:1008BC00D108000001230AE0012308E0012306E02F
:1008CC00012304E0012302E0012300E00023184689
:1008DC000C37BD4680BC704730010010E00F00F0B3
:1008EC00E80F00F03401001080B483B000AF164B59
:1008FC001B687B60154B1B683B607B68062B1DD10E
:10090C003B68033B042B17D801A252F823F000BF1D
:10091C003109000035090000390900003D090000CB
:10092C004109000000230AE0002308E0002306E050
:10093C00012304E0012302E0012300E00023184618
:10094C000C37BD4680BC70473001001034010010DC
:10095C0080B483B000AF164B1B687B60154B1B68D3
:10096C003B607B68062B1DD13B68033B042B17D8DF
:10097C0001A252F823F000BF990900009D09000064
:10098C00A1090000A5090000A909000000230AE044
:10099C00002308E0002306E0002304E0012302E02A
:1009AC00012300E0002318460C37BD4680BC70477D
:1009BC00300100103401001080B500AFFFF7C8FF04
:1009CC000346002B07D04FF010234FF08042D3F892
:1009DC000832C2F8583500BF80BD000080B400AFAB
:1009EC00034B044A1A6000BFBD4680BC704700BF71
:1009FC00000000200090D00380B500AFFFF7E4FCAE
:100A0C000346002B06D07F4B1B681B0A7E4A03F063
:100A1C001F031360FFF720FD0346002B02D07B4B16
:100A2C007B4A1A60FFF750FD0346002B06D0794B2A
:100A3C001B685B0B784A03F007031360FFF78CFD10
:100A4C000346002B05D0754BDB68744A23F080738A
:100A5C00D360FFF7B9FD0346002B0ED04FF0804357
:100A6C000022C3F80C214FF080430022C3F8102160
:100A7C004FF080430022C3F83825FFF7EDFD034605
:100A8C00002B02D0664B03221A60FFF71DFE0346B3
:100A9C00002B0BD0634B05221A60634B01221A60AA
:100AAC00624B00221A60624B3F221A60FFF744FE31
:100ABC000346002B76D04FF080535E4AD3F80434B3
:100ACC00C2F820354FF080535A4AD3F80834C2F894
:100ADC0024354FF08053574AD3F80C34C2F82835DC
:100AEC004FF08053534AD3F81034C2F82C354FF0E2
:100AFC008053504AD3F81434C2F830354FF0805339
:100B0C004C4AD3F81834C2F834354FF08053494A64
:100B1C00D3F81C34C2F840354FF08053454AD3F813
:100B2C002034C2F844354FF08053424AD3F8243471
:100B3C00C2F848354FF080533E4AD3F82834C2F8F7
:100B4C004C354FF080533B4AD3F82C34C2F8503517
:100B5C004FF08053374AD3F83034C2F854354FF045
:100B6C008053344AD3F83434C2F860354FF0805394
:100B7C00304AD3F83834C2F864354FF080532D4ADC
:100B8C00D3F83C34C2F868354FF08053294AD3F877
:100B9C004034C2F86C354FF08053264AD3F84434B5
:100BAC00C2F87035FFF710FE0346002B05D0224B20
:100BBC001B68224A03F04F031360FFF74DFE0346F8
:100BCC00002B0DD04FF08043D3F8003403F0010319
:100BDC00002B05D04FF080436FF00102C3F80024C6
:100BEC00FFF782FE0346002B05D0154B1B68144AF9
:100BFC0043F480631360FFF7DFFEFFF7EFFE00BFE7
:100C0C0080BD00BF240300104035014074C0074074
:100C1C000DF0ADBA440200103C050040F0ED00E0D0
:100C2C00A005004010560040885600401856004061
:100C3C001456004000C0004058020010E40E004062
:100C4C003C1700400F49104A104B00F010F81049A7
:100C5C00104A114B00F00BF81049114A114B00F0DF
:100C6C0006F81149114A124B00F001F806E0521A2D
:100C7C0003DD043A98588850FBDC7047FFF7BCFE44
:100C8C00FFF7E2FA0000002034040020F80F000007
:100C9C0034040020340400202C1400003404002000
:100CAC00340400202C1400003404002034040020F0
:100CBC002C140000FEE7FEE7FEE7FEE7FEE7FEE78A
:100CCC00FEE7FEE7FEE7FEE708B50021044600F06C
:100CDC008BF8044B1868C36B03B19847204600F09F
:100CEC004BF900BF0002000070B50D4E0D4D761B88
:100CFC00B61006D0002455F8043B01349847A642A0
:100D0C00F9D1094E094D761B00F038F9B61006D012
:100D1C00002455F8043B01349847A642F9D170BD24
:100D2C00940F0000940F00009C0F0000940F000023
:100D3C00830730B548D0541E002A3FD0CAB20346B0
:100D4C0001E0013C3AD303F8012B9D07F9D1032CA8
:100D5C002DD9CDB245EA05250F2C45EA054536D9E6
:100D6C00A4F1100222F00F0C03F1200EE6444FEA1E
:100D7C00121C03F1100242E9045542E902551032EB
:100D8C007245F8D10CF1010214F00C0F03EB0212B6
:100D9C0004F00F0C13D0ACF1040323F00303043361
:100DAC00134442F8045B9342FBD10CF003042CB1C6
:100DBC00CAB21C4403F8012B9C42FBD130BD6446E3
:100DCC001346002CF4D1F9E703461446BFE71A4644
:100DDC00A446E0E7024B13B1024800F067B8704735
:100DEC0000000000C50E00002DE9F04F2D4B83B024
:100DFC0083461868CDF804B00F4600F073F82A4B00
:100E0C00D3F80080D8F848619EB14FF001094FF03B
:100E1C00000A7468651E0CD4013406EB84047FB19F
:100E2C00D4F80031BB420BD0013D6B1CA4F104047F
:100E3C00F5D11C4B186803B0BDE8F04F00F054B866
:100E4C0073682268013BAB420CBF7560C4F800A00C
:100E5C00002AE9D0D6F88801D6F804B009FA05F1D1
:100E6C0001420BD1904772685A4512D1D8F84831DB
:100E7C00B342D9D01E46002ECBD1DAE7D6F88C017E
:100E8C0001420BD1D4F880100198904772685A45F2
:100E9C00ECD0D8F84861002EBBD1CAE7D4F880005A
:100EAC009047E0E7300400200002000000230146D8
:100EBC001A46184600F01AB838B5084B084D5B1B9B
:100ECC009C1007D0043B1D44013C55F8043998474D
:100EDC00002CF9D1BDE8384000F05AB8AC0F000036
:100EEC00A80F0000704700BF704700BF2DE9F04706
:100EFC00DFF87CA00646DAF8000098460F469146CB
:100F0C00FFF7F0FF1B4B1B68D3F8484124B365680F
:100F1C001F2D26DC5EB96B1C0235DAF8000063600D
:100F2C0044F82570FFF7E0FF0020BDE8F08704EBE4
:100F3C0085010123C1F88890D4F88821AB401A436D
:100F4C00022EC4F88821C1F80881E4D1D4F88C2190
:100F5C001343C4F88C31DEE703F5A674C3F848419B
:100F6C00D5E7DAF80000FFF7BFFF4FF0FF30DCE702
:100F7C003004002000020000FEE700BFF8B500BFFF
:100F8C00F8BC08BC9E467047E10D00003102000021
:100F9C00F8B500BFF8BC08BC9E4670470D020000B7
:040FAC000000000041
:100FB000F80F0000000000200D0100002C140000BC
:100FC00034040020000000002C1400003404002031
:100FD000000000002C140000340400200000000079
:100FE0003404002008000000540400200000000029
:080FF000540400200000000081
:100FF8000090D0030000000000000000F402002070
:101008005C030020C4030020000000000000000072
:1010180000000000000000000000000000000000C8
:1010280000000000000000000000000000000000B8
:1010380000000000000000000000000000000000A8
:101048000000000000000000000000000000000098
:101058000000000000000000000000000000000088
:101068000000000000000000000000000000000078
:101078000000000000000000000000000000000068
:101088000000000000000000000000000000000058
:101098000000000000000000000000000000000048
:1010A80001000000000000000E33CDAB34126DE6E5
:1010B800ECDE05000B00000000000000000000004E
:1010C8000000000000000000000000000000000018
:1010D8000000000000000000000000000000000008
:1010E80000000000000000000000000000000000F8
:1010F80000000000000000000000000000000000E8
:04142800500400204C
:0400000300000C519C
:00000001FF
